S010000048617264636F64652E73726563FA
S11300000C942A000C943F000C943F000C943F0085
S11300100C943F000C943F000C943F000C943F0060
S11300200C943F000C943F000C943F000C943F0050
S11300300C943F000C943F000C943F000C943F0040
S11300400C943F000C943F000C943F000C943F0030
S11300500C943F0011241FBECFE5D8E0DEBFCDBF16
S113006011E0A0E6B0E0E2E4F5E002C005900D92F4
S1130070A834B107D9F70E9452020C949F020C9441
S11300800000982F907F98BB98B39D7F98BB6130F8
S113009021F498B3916098BB03C098B39E7F98BB3A
S11300A098B3946098BBEFE0F7E23197F1F700C0A2
S11300B0000098B39B7F98BBEFE1FEE43197F1F722
S11300C000C00000F0E18F9FC001112488BB88B3F9
S11300D08D7F88BB613021F488B3816088BB03C005
S11300E088B38E7F88BB88B3846088BB8FE097E237
S11300F00197F1F700C0000088B38B7F88BBEFE164
S1130100FEE43197F1F700C000000895CF93DF9328
S1130110EC010AC0219661E00E9441008FE097E261
S11301200197F1F700C0000088818111F3CFDF91BE
S1130130CF9108950F931F93CF93DF9300D000D0F6
S11301401F92CDB7DEB785E0E0E6F0E0DE01119660
S113015001900D928A95E1F700E010E00CC0E1E017
S1130160F0E0EC0FFD1FE00FF11F60E080810E94C2
S113017041000F5F1F4F0530110588F30F900F905A
S11301800F900F900F90DF91CF911F910F910895D1
S113019022B3286022BB20E030E008C0EFECF7E097
S11301A03197F1F700C000002F5F3F4F2817390740
S11301B0A8F382B3877F82BB0895CF93DF93CDB733
S11301C0DEB7C056D1090FB6F894DEBF0FBECDBF5F
S11301D080E1E5E6F0E0DE01119601900D928A954A
S11301E0E1F780E5E5E7F0E0DE01519601900D923C
S11301F08A95E1F720E030E02DC0FC01EE0FFF1FEF
S113020061E070E06C0F7D1FE60FF71FA081B181E4
S1130210F901EE0FFF1FEE0FFF1FEE0FFF1FE80F98
S1130220F91FEE0FFF1FE60FF71F60897189A617EC
S1130230B70711F44F5F5F4F019604C080E090E070
S113024040E050E088309105C4F24830510539F05F
S11302502F5F3F4F253031058CF340E050E04830AC
S1130260510509F05BC088EE93E00E94C80082B398
S1130270816082BB7FEF83ED90E3715080409040BA
S1130280E1F700C0000082B38E7F82BB60E081E0B2
S11302900E94410085ED90E00E94860060E080ECC1
S11302A00E94410083EE90E00E9486002FEF68E0F8
S11302B07DE3215060407040E1F700C0000060E041
S11302C081E00E94410080EF90E00E94860060E09F
S11302D080EC0E94410081E091E00E9486008FEF53
S11302E093ED20E3815090402040E1F700C00000EE
S11302F060E081E00E94410081E191E00E9486007B
S11303008FE19EE40197F1F700C0000060E080EC0B
S11303100E9441008EE191E00E948600C05ADF4FA6
S11303200FB6F894DEBF0FBECDBFDF91CF91089515
S1130330CF93DF93CDB7DEB7C056D1090FB6F8948B
S1130340DEBF0FBECDBF80E1E5ECF0E0DE0111962B
S113035001900D928A95E1F780E5E5E7F0E0DE0192
S1130360519601900D928A95E1F720E030E02DC07E
S1130370FC01EE0FFF1F61E070E06C0F7D1FE60FC4
S1130380F71FA081B181F901EE0FFF1FEE0FFF1FD0
S1130390EE0FFF1FE80FF91FEE0FFF1FE60FF71F09
S11303A060897189A617B70711F44F5F5F4F0196F3
S11303B004C080E090E040E050E088309105C4F251
S11303C04830510539F02F5F3F4F253031058CF30C
S11303D040E050E0452B09F05BC088EE93E00E94BA
S11303E0C8008BB382608BBB7FEF83ED90E37150C9
S11303F080409040E1F700C000008BB38D7F8BBB41
S113040060E081E00E9441008DE291E00E9486005C
S113041060E080EC0E9441008BE391E00E94860042
S11304202FEF68E07DE3215060407040E1F700C0A9
S1130430000060E081E00E94410080EF90E00E94B3
S1130440860060E080EC0E94410081E091E00E941F
S113045086008FEF93ED20E3815090402040E1F738
S113046000C0000060E081E00E94410081E191E071
S11304700E9486008FE19EE40197F1F700C000001E
S113048060E080EC0E9441008EE191E00E948600D1
S1130490C05ADF4F0FB6F894DEBF0FBECDBFDF9159
S11304A0CF91089587B39FEF97BB84B38E6F84BBBE
S11304B08AB38E6F8ABB81B391BB80ED97E00E94B3
S11304C0C8000E949A0080EF90E00E94860060E0DD
S11304D080EC0E94410081E091E00E9486002FEFB1
S11304E083ED90E3215080409040E1F700C000008C
S11304F060E081E00E94410081E191E00E94860079
S11305008FE19EE40197F1F700C0000060E080EC09
S11305100E9441008EE191E00E9486009FEF23ED4E
S113052080E3915020408040E1F700C0000098999A
S11305300E94DD00C89BFBCF0E949801F8CFF8947D
S1050540FFCFE7
S113054202280E0601010001000100010000000062
S11305520000000000010001000100000000000092
S11305620000000000010000000100000000000083
S11305720000000000000000000100000000000074
S11305820000000000010001000100000000000062
S11305920001000000010001000100010000000050
S11305A20000000000000000000000000001000143
S11305B200010001002020465020656E74727920EB
S11305C26973002020207375636365656465640044
S11305D2202D2D53616665204C6F636B65722D2D42
S11305E200205573696E672041746D65676133320B
S11305F20020202020465020466F756E6400202083
S1130602506C6163652046696E67657200202046FE
S1130612696E6765727072696E74002020204E6F75
S10B06227420466F756E64003C
S9030000FC
