:100000000C942A000C9447000C9447000C94470071
:100010000C9447000C9447000C9447000C94470044
:100020000C9447000C9447000C9447000C94470034
:100030000C9447000C9445040C9447000C94470022
:100040000C9447000C9447000C9447000C94470014
:100050000C94470011241FBECFE5D8E0DEBFCDBF12
:1000600011E0A0E6B0E0ECEDFFE002C005900D92DB
:10007000A23EB107D9F722E0A2EEB1E001C01D9285
:10008000A832B207E1F70E9479040C94EC070C94B3
:1000900000008FEF84BB93E095BB90EF9ABB9FE08D
:1000A0009BBB87BB81B3805881BB82B3805882BB26
:1000B0000895982F907F98BB98B39D7F98BB61302F
:1000C00021F498B3916098BB03C098B39E7F98BB0E
:1000D00098B3946098BBEFE1FEE43197F1F700C06C
:1000E000000098B39B7F98BBEFE3FCE93197F1F7F1
:1000F00000C00000F0E18F9FC001112488BB88B3CD
:100100008D7F88BB613021F488B3816088BB03C0D8
:1001100088B38E7F88BB88B3846088BB8FE19EE400
:100120000197F1F700C0000088B38B7F88BBEFE335
:10013000FCE93197F1F700C000000895CF93DF93F9
:10014000EC010AC0219661E00E9459008FE19EE413
:100150000197F1F700C0000088818111F3CFDF9192
:10016000CF9108950F931F93CF93DF9300D000D0CA
:100170001F92CDB7DEB785E0E1E8F0E0DE01119631
:1001800001900D928A95E1F700E010E00CC0E1E0EB
:10019000F0E0EC0FFD1FE00FF11F60E080810E9496
:1001A00059000F5F1F4F0530110588F30F900F9016
:1001B0000F900F900F90DF91CF911F910F910895A5
:1001C00088E98AB986E880BD87E689B910BC789449
:1001D00008955D9BFECF8CB9089580E090E005C046
:1001E000FC01EC5EFD4F1082019684319105C0F355
:1001F0000895E199FECF9FBB8EBB6DBB8CB384602D
:100200008CBB8CB382608CBB80E090E00895E19958
:10021000FECF9FBB8EBB8CB381608CBB8DB308952A
:10022000CF92DF92EF92FF920F931F93CF93DF93C2
:100230006C010E940701082F10E00115110511F44F
:1002400001E010E07801EE0CFF1CE00EF11EEE0C58
:10025000FF1C96012150310940E3429FC001439F9A
:10026000900D1124E80EF91EC0E0D0E00CC0FE0194
:10027000EE0FFF1FEE51FE4F6081CE018E0D9F1DD0
:100280000E94F9002196C630D1058CF361E0600F21
:10029000C6010E94F900DF91CF911F910F91FF904D
:1002A000EF90DF90CF900895EF92FF920F931F93FE
:1002B000CF93DF937C018B010E94ED001092F3013C
:1002C0001092F2012FEF81EE94E021508040904097
:1002D000E1F700C00000C0E0D0E007C0F701EC0F7C
:1002E000FD1F80810E94E9002196C017D107B4F359
:1002F0002FEF83ED90E3215080409040E1F700C064
:1003000000008091F0019091F101019709F04CC03B
:10031000809114028F3EA1F580911502813099F5EC
:1003200080911A02873091F580911D02811131C0B0
:10033000E4E1F2E0278130E0322F22278085282B6C
:1003400080E090E005C0FC01E85FFD4F108201965F
:1003500082179307C0F380E090E009C0FC01E25EE1
:10036000FD4F4081FC01E85FFD4F40830196A901EC
:10037000425051098417950788F380E090E00BC044
:1003800081E090E008C081E090E005C081E090E06D
:1003900002C081E090E01092F3011092F2011092FD
:1003A000F1011092F00102C081E090E0DF91CF9165
:1003B0001F910F91FF90EF90089525B3246025BB06
:1003C00020E030E008C0EFE9FFE03197F1F700C02E
:1003D00000002F5F3F4F28173907A8F385B38B7FA5
:1003E00085BB0895CF93DF9360E081E00E945900C0
:1003F000C0E0D0E0C89906C0219688EC90E00E9449
:10040000DD010AC0C99906C0219788EC90E00E94DE
:10041000DD0102C0CB9B24C060E080E80E9459004F
:10042000DF93CF9386E890E09F938F9384EF91E0E2
:100430009F938F930E94020584EF91E00E949E009B
:100440009FEF23EC89E0915020408040E1F700C00D
:1004500000000F900F900F900F900F900F90CACF49
:1004600088EC90E00E94DD01CE01DF91CF910895EC
:10047000CF93DF936CE070E080E991E00E9454013B
:10048000892B09F08BC06DE070E083E891E00E9459
:100490005401892B09F070C061E170E082E791E0BE
:1004A0000E945401892B09F054C085B3886085BB34
:1004B00088EC90E00E94DD01E8E0F2E0C081D0E04D
:1004C000DC2FCC278181C80FD11DDF93CF9383E927
:1004D00090E09F938F9384EF91E09F938F930E947E
:1004E000020560E081E00E94590084EF91E00E94E3
:1004F0009E008C2F9D2F0E9410019FEF23ED80E323
:10050000915020408040E1F700C0000060E081E0B1
:100510000E9459008AE990E00E949E0060E080EC11
:100520000E9459008FEA90E00E949E009FEF27EA08
:1005300081E6915020408040E1F700C0000085B383
:10054000877F85BB0F900F900F900F900F900F90AB
:1005500025C085B3886085BB60E081E00E945900BA
:100560008FEB91E00E949E0088E893E10E94DD01FC
:1005700085B3877F85BB12C085B3886085BB60E08B
:1005800081E00E9459008FEB91E00E949E0080ED77
:1005900097E00E94DD0185B3877F85BBDF91CF9116
:1005A0000895CF93DF9360E081E00E9459008BE3D0
:1005B00091E00E949E002FEF87EA91E62150804053
:1005C0009040E1F700C0000060E081E00E94590027
:1005D00089EB90E00E949E0060E080EC0E94590050
:1005E0002FEF83ED90E3215080409040E1F700C071
:1005F0000000C0E0D0E0D2C06CE070E080E991E0A3
:100600000E945401892B09F0BDC06DE070E083E8C1
:1006100091E00E945401892B09F0C4C060E080EC95
:100620000E94590086EC90E00E949E002FEF83ED1F
:1006300090E3215080409040E1F700C0000060E06E
:1006400081E00E94590089EB90E00E949E0060E0EA
:1006500080EC0E94590086ED90E00E949E002FEFF2
:1006600087EA91E6215080409040E1F700C0000009
:100670006CE070E080E991E00E945401892B09F060
:1006800091C06DE070E085E691E00E945401892BF5
:1006900009F073C060E081E00E94590086EC90E0B0
:1006A0000E949E002FEF83ED90E321508040904008
:1006B000E1F700C000006CE070E089E591E00E9485
:1006C0005401892B09F054C00E94F20180937F00ED
:1006D00090938000E0E7F0E093878487825F8687CD
:1006E0006FE070E0CF010E945401892BA1F588ECE6
:1006F00090E00E94DD0160E081E00E94590083EEFD
:1007000090E00E949E0080917F00909180009F93D6
:100710008F9381EF90E09F938F9384EF91E09F936D
:100720008F930E94020560E080EC0E94590084EFE4
:1007300091E00E949E002FEF83ED90E321508040D6
:100740009040E1F700C000000F900F900F900F90C5
:100750000F900F9027C060E081E00E94590089EF60
:1007600090E00E949E0088EB9BE00E94DD011AC091
:100770008BE091E00E949E0015C08BE091E00E940A
:100780009E0010C0C230D10541F460E080EC0E94B0
:10079000590081E191E00E949E002196C330D1056D
:1007A0000CF42ACF2FEF87EA91E621508040904049
:1007B000E1F700C00000DF91CF9108950E94F2019F
:1007C0009093800080937F00E0E6F0E0928783873B
:1007D0009C012B5E3F4F36878B5E878760E170E020
:1007E000CF010E945401892B39F560E081E00E941D
:1007F0005900809180008F9380917F008F938BE1CF
:1008000091E09F938F9384EF91E09F938F930E9449
:10081000020584EF91E00E949E0060E080EC0E945F
:10082000590089E291E00E949E000F900F900F9076
:100830000F900F900F9008C060E081E00E94590077
:100840008BE091E00E949E002FEF87EA91E6215015
:1008500080409040E1F700C00000089560E080E82B
:100860000E94590089E391E00E949E0060E080ECC4
:100870000E94590089E491E00E949E008FE39CE968
:100880000197F1F700C0000008951F920F920FB674
:100890000F9211242F934F935F938F939F93EF9316
:1008A000FF932CB18091F2019091F301AC014F5F65
:1008B0005F4F5093F3014093F201FC01EC5EFD4F5A
:1008C00020838091F2019091F301892B31F081E036
:1008D00090E09093F1018093F001FF91EF919F914F
:1008E0008F915F914F912F910F900FBE0F901F909E
:1008F00018950E9449000E94E00080ED97E00E9458
:10090000DD010E94B2008CE991E00E949E0060E04F
:1009100080EC0E9459008DEA91E00E949E002FEF2A
:1009200087EA91E6215080409040E1F700C0000046
:100930001092F3011092F20115C060E081E00E9474
:1009400059008CEB91E00E949E002FEF87EA91E620
:10095000215080409040E1F700C000001092F30168
:100960001092F20160E170E082ED91E00E9454018A
:10097000892B19F760E081E00E94590089EC91E031
:100980000E949E002FEF83ED90E321508040904025
:10099000E1F700C000000E942E042FEF87EA91E6E5
:1009A000215080409040E1F700C0000060E081E00D
:1009B0000E9459000E943802CA9910C088EC90E049
:1009C0000E94DD010E94D1022FEF87EA91E62150BB
:1009D00080409040E1F700C00000ECCFCB99EACF17
:1009E00088EC90E00E94DD010E94F2010E94DE038B
:1009F0002FEF83ED90E3215080409040E1F700C05D
:100A00000000D8CFAEE0B0E0E8E0F5E00C94C3071A
:100A10000D891E8986E08C831A8309838FEF9FE7F7
:100A20009E838D83AE01475E5F4F6F89788DCE01C7
:100A300001960E942405EF81F885E00FF11F1082D6
:100A40002E96E4E00C94DF07ABE0B0E0EAE2F5E0DC
:100A50000C94B5076C017B018A01FC011782168298
:100A6000838181FFCCC1CE0101963C01F6019381C7
:100A7000F70193FD859193FF81917F01882309F40C
:100A8000BAC1853239F493FD859193FF81917F013D
:100A9000853229F4B60190E00E941B07E7CF912C24
:100AA000212C312CFFE1F315D8F08B3279F038F49A
:100AB000803279F08332A1F4232D20611DC08D3264
:100AC00061F0803369F4232D216016C0832D82608C
:100AD000382EE32DE4603E2E2AC0F32DF8601DC0B1
:100AE00037FC2DC020ED280F2A3040F08E32B9F4AB
:100AF00036FC81C1232D2064322E19C036FE06C07B
:100B00008AE0989E200D1124922E11C0EAE02E9EBC
:100B1000200D1124222EF32DF0623F2E08C08C36BA
:100B200021F4832D8068382E02C0883641F4F70105
:100B300093FD859193FF81917F018111B3CF982F10
:100B40009F7D9554933028F40C5F1F4F9FE399834A
:100B50000DC0833631F0833771F0833509F059C009
:100B600021C0F801808189830E5F1F4F8824839400
:100B7000912C530113C02801F2E04F0E511CF801D3
:100B8000A080B18036FE03C0692D70E002C06FEF17
:100B90007FEFC5010E9410074C018201F32DFF7702
:100BA0003F2E16C0280122E0420E511CF801A08001
:100BB000B18036FE03C0692D70E002C06FEF7FEF99
:100BC000C5010E9405074C01F32DF0683F2E8201FC
:100BD00033FC1BC0822D90E088169906B0F4B60154
:100BE00080E290E00E941B072A94F4CFF50137FCC5
:100BF000859137FE81915F01B60190E00E941B074D
:100C000021102A9421E0821A91088114910471F72D
:100C1000E8C0843611F0893641F5F80137FE07C087
:100C200060817181828193810C5F1F4F08C0608158
:100C30007181072E000C880B990B0E5F1F4FF32D4F
:100C4000FF763F2E97FF09C090958095709561952E
:100C50007F4F8F4F9F4FF0683F2E2AE030E0A30177
:100C60000E945707882E861845C0853731F4232DFA
:100C70002F7EB22E2AE030E025C0932D997FB92E29
:100C80008F36C1F018F4883579F0B5C0803719F087
:100C9000883721F0B0C0E92FE061BE2EB4FE0DC050
:100CA000FB2DF460BF2E09C034FE0AC0292F266038
:100CB000B22E06C028E030E005C020E130E002C0DE
:100CC00020E132E0F801B7FE07C0608171818281C6
:100CD00093810C5F1F4F06C06081718180E090E0BE
:100CE0000E5F1F4FA3010E945707882E8618FB2D09
:100CF000FF773F2E36FE0DC0232D2E7FA22E8914A6
:100D000058F434FE0BC032FC09C0832D8E7EA82E11
:100D100005C0B82CA32C03C0B82C01C0B92CA4FE6C
:100D20000FC0FE01E80DF11D8081803321F49A2D62
:100D3000997EA92E09C0A2FE06C0B394B39404C044
:100D40008A2D867809F0B394A3FC11C0A0FE06C0DA
:100D5000B21488F4280C922C9B180EC0B21460F4C4
:100D6000B60180E290E00E941B07B394F7CFB21463
:100D700018F42B1802C0982C212CA4FE10C0B60128
:100D800080E390E00E941B07A2FE17C0A1FC03C0F5
:100D900088E790E002C088E590E0B6010CC08A2D9B
:100DA000867859F0A1FE02C08BE201C080E2A7FC68
:100DB0008DE2B60190E00E941B07891438F4B60159
:100DC00080E390E00E941B079A94F7CF8A94F30186
:100DD000E80DF11D8081B60190E00E941B07811093
:100DE000F5CF222009F442CEB60180E290E00E94C5
:100DF0001B072A94F6CFF6018681978102C08FEFF8
:100E00009FEF2B96E2E10C94D107FC010590615015
:100E100070400110D8F7809590958E0F9F1F089510
:100E2000FC016150704001900110D8F780959095B9
:100E30008E0F9F1F08950F931F93CF93DF93FB0196
:100E4000238121FD03C08FEF9FEF2CC022FF16C02E
:100E500046815781248135814217530744F4A0818C
:100E6000B1819D012F5F3F4F318320838C93268179
:100E700037812F5F3F4F3783268314C08B01EC01EE
:100E8000FB010084F185E02D0995892BE1F6D8015D
:100E900016968D919C911797019617969C938E9319
:100EA0001697CE01DF91CF911F910F910895FA010E
:100EB000AA27283051F1203181F1E8946F936E7F99
:100EC0006E5F7F4F8F4F9F4FAF4FB1E03ED0B4E08A
:100ED0003CD0670F781F891F9A1FA11D680F791FCB
:100EE0008A1F911DA11D6A0F711D811D911DA11DDC
:100EF00020D009F468943F912AE0269F11243019EC
:100F0000305D3193DEF6CF010895462F4770405D86
:100F10004193B3E00FD0C9F7F6CF462F4F70405D35
:100F20004A3318F0495D31FD4052419302D0A9F790
:100F3000EACFB4E0A6959795879577956795BA958A
:100F4000C9F700976105710508959B01AC010A2E50
:100F500006945795479537952795BA95C9F7620F27
:100F6000731F841F951FA01D08952F923F924F92CB
:100F70005F926F927F928F929F92AF92BF92CF9229
:100F8000DF92EF92FF920F931F93CF93DF93CDB732
:100F9000DEB7CA1BDB0B0FB6F894DEBF0FBECDBFAA
:100FA00009942A88398848885F846E847D848C847B
:100FB0009B84AA84B984C884DF80EE80FD800C8184
:100FC0001B81AA81B981CE0FD11D0FB6F894DEBF67
:0C0FD0000FBECDBFED010895F894FFCFD7
:100FDC00EF01FFFFFFFF0100070C000000010015EF
:100FEC00EF01FFFFFFFF01000606010001000E01EB
:100FFC000002280E0601456E7465722049643A257C
:10100C0064200049643A2025640046696E67657265
:10101C007072696E7420656E7472792069730073D6
:10102C00756363656564656400506C616365204637
:10103C00696E6765720046696E67657220446574F7
:10104C0065637465640020202020416761696E200F
:10105C0020200046696E6765722053746F72656458
:10106C00004964203A2025640046696E6765722049
:10107C004E6F742053746F726564004572726F7298
:10108C00004E6F2046696E6765720046696E676533
:10109C0072204944202564200044656C65746564A5
:1010AC00205375636365737300312D456E726F6CDD
:1010BC006C2046696E67657200322D64656C6574D0
:1010CC00652046696E67657200EF01FFFFFFFF0147
:1010DC000003050009EF01FFFFFFFF0100040202FE
:1010EC000009EF01FFFFFFFF0100081B01000000DA
:1010FC00A300C8EF01FFFFFFFF010004020100087D
:10110C00EF01FFFFFFFF010003010005202D2D5310
:10111C00616665204C6F636B65722D2D005573698C
:10112C006E672041746D6567613332004650204E06
:10113C006F7420466F756E6400465020466F756E56
:10114C006400EF01FFFFFFFF010007130000000028
:02115C00001B76
:00000001FF
